:100000000C942A000C9436000C945B000C94800035
:100010000C9434000C9434000C9434000C94340090
:100020000C9434000C9434000C9434000C94340080
:100030000C9434000C9434000C9434000C94340070
:100040000C9434000C9434000C9434000C94340060
:100050000C94340011241FBECFE5D8E0DEBFCDBF25
:100060000E94F2000C94F7000C9400001F920F9273
:100070000FB60F9211242F933F938F939F9392B3B8
:1000800080E2982792BB2FE73AE196E0215030407A
:100090009040E1F700C0000092B3892782BB8AB785
:1000A00080648ABF9F918F913F912F910F900FBED7
:1000B0000F901F9018951F920F920FB60F92112458
:1000C0002F933F938F939F9392B380E4982792BB93
:1000D0002FE73AE196E0215030409040E1F700C030
:1000E000000092B3892782BB8AB780688ABF9F913C
:1000F0008F913F912F910F900FBE0F901F901895E9
:100100001F920F920FB60F9211242F938F939F93EC
:1001100082B3805882BB2FE78AE196E0215080406D
:100120009040E1F700C0000082B3805882BB8AB7DC
:1001300080628ABF9F918F912F910F900FBE0F9079
:100140001F9018958FB78F778FBF8BB78F778BBF27
:100150008BB780688BBF8BB78F7B8BBF8BB780646F
:100160008BBF8BB78F7D8BBF8BB780628BBF85B703
:1001700085BF85B7816085BF85B785BF85B78C6032
:1001800085BF84B78F7B84BF84B784BF8FB78068F7
:100190008FBF089587B38B7F87BB87B387BB81B33E
:1001A0008B7F81BB81B381BB81B3877F81BB81B3EF
:1001B00081BB81B38F7D81BB81B3806281BB81B301
:1001C0008F7B81BB81B3806481BB82B38F7B82BB19
:1001D00081B38F7781BB81B3806881BB82B38F7716
:1001E00082BB08950E94CA000E94A200FFCFF8942B
:0201F000FFCF3F
:00000001FF
