:020000040800F2
:10000000002800201902000869020008690200089F
:100010006902000869020008690200080000000087
:10002000000000000000000000000000690200085D
:100030006902000800000000690200086902000867
:1000400069020008690200086902000869020008E4
:1000500069020008690200086902000869020008D4
:1000600069020008690200086902000869020008C4
:1000700069020008690200086902000869020008B4
:1000800069020008690200086902000869020008A4
:100090006902000869020008690200086902000894
:1000A0006902000869020008690200086902000884
:1000B0006902000869020008690200086902000874
:1000C0006902000869020008690200086902000864
:1000D0006902000869020008690200086902000854
:1000E00069020008690200080000000069020008B7
:1000F0006902000869020008690200086902000834
:100100006902000869020008690200086902000823
:100110006902000869020008690200086902000813
:100120006902000869020008690200086902000803
:1001300010B5054C237833B9044B13B10448AFF321
:1001400000800123237010BD00000020000000008B
:10015000B402000808B5034B1BB103490348AFF3D1
:10016000008008BD0000000004000020B402000868
:1001700080B400AF074B1B68064A43F480631360EA
:10018000044B1B68034A43F42053136000BFBD4671
:1001900080BC70470410024080B582B000AFFFF70A
:1001A000E7FF00237B60194B1B68184A43F00403E8
:1001B0001360174B1B68164A23F470031360144B2B
:1001C0001B68134A43F400131360124B1B68114A57
:1001D00043F40053136000237B6002E07B6801332B
:1001E0007B607B68B3F5FA6FF8DB0A4B1B68094A42
:1001F00023F40053136000237B6002E07B6801332B
:100200007B607B68B3F5FA6FF8DBDEE7181002401D
:10021000040801400C0801400D488546AFF30080FA
:100220000C480D490D4A002302E0D458C450043351
:10023000C4188C42F9D30A4A0A4C002301E0136027
:100240000432A242FBD300F011F8FFF7A5FFFEE74E
:10025000002800200000002000000020D402000838
:10026000000000201C000020FEE7000070B5002503
:100270000C4E0D4CA41BA410A54209D100F01AF895
:1002800000250A4E0A4CA41BA410A54205D170BD3E
:1002900056F8253098470135EEE756F8253098474F
:1002A0000135F2E7CC020008CC020008CC020008BD
:1002B000D0020008F8B500BFF8BC08BC9E467047E5
:0C02C000F8B500BFF8BC08BC9E467047B3
:0402CC0055010008D0
:0402D00031010008F0
:0400000508000219D4
:00000001FF
