:020000040800F2
:10000000002800204D0400089D0400089D040008FD
:100010009D0400089D0400089D04000800000000E5
:100020000000000000000000000000009D04000827
:100030009D040008000000009D0400089D040008C5
:100040009D0400089D0400089D0400089D0400080C
:100050009D0400089D0400089D0400089D040008FC
:100060009D0400089D0400089D0400089D040008EC
:100070009D0400089D0400089D0400089D040008DC
:100080009D0400089D0400089D0400089D040008CC
:100090009D0400089D0400089D0400089D040008BC
:1000A0009D0400089D0400089D0400089D040008AC
:1000B0009D0400089D0400089D0400089D0400089C
:1000C0009D0400089D0400089D0400089D0400088C
:1000D0009D0400089D0400089D0400089D0400087C
:1000E0009D0400089D040008000000009D04000815
:1000F0009D0400089D0400089D0400089D0400085C
:100100009D0400089D0400089D0400089D0400084B
:100110009D0400089D0400089D0400089D0400083B
:100120009D0400089D0400089D0400089D0400082B
:1001300010B5054C237833B9044B13B10448AFF321
:1001400000800123237010BD00000020000000008B
:10015000E804000808B5034B1BB103490348AFF39B
:10016000008008BD0000000004000020E804000832
:1001700080B483B000AF0346FB80FB88802B42D065
:10018000802B11DC082B36D0082B06DC022B2ED05E
:10019000042B2ED0012B28D047E0202B2FD0402B32
:1001A0002FD0102B29D040E0B3F5006F33D0B3F53A
:1001B000006F09DCB3F5007F29D0B3F5806F28D03C
:1001C000B3F5807F21D030E0B3F5005F27D0B3F5E1
:1001D000005F03DCB3F5805F1FD026E0B3F5804FEE
:1001E0001FD0B3F5004F1ED01FE000231EE00423F4
:1001F0001CE008231AE00C2318E0102316E0142357
:1002000014E0182312E01C2310E000230EE0042366
:100210000CE008230AE00C2308E0102306E0142376
:1002200004E0182302E01C2300E0002318460C37EA
:10023000BD4680BC704790B585B000AF786039602E
:100240000023BB603B681B88FF2B01D87B6801E063
:100250007B680433BB603B681B881846FFF788FF48
:1002600003461A460F239340DA43BB681B681A40C3
:10027000BB681A603B689B78042B0BD03B689B786B
:10028000052B07D03B689B78072B03D03B689B78F6
:10029000062B1CD13B689B78043B9B005AB23B6801
:1002A000DB785BB213435BB2DBB203F00F03FB738B
:1002B000FC7B3B681B881846FFF75AFF034604FA8D
:1002C00003F2BB681B681A43BB681A6070E03B68A6
:1002D0009B78012B03D03B689B78002B15D13B68A2
:1002E0009B789B00DBB203F00F03FB73FC7B3B6846
:1002F0001B881846FFF73CFF034604FA03F2BB686D
:100300001B681A43BB681A6052E03B689B78022B5B
:1003100003D03B689B78032B35D13B689B78022B3D
:1003200002D0032B0FD01FE07B68DB683A6812888D
:100330001A437B68DA603B689B789B00DBB203F072
:100340000F03FB7310E07B68DB683A681288D243C6
:100350001A407B68DA603B689B78013B9B00DBB20C
:1003600003F00F03FB7300BFFC7B3B681B88184640
:10037000FFF7FEFE034604FA03F2BB681B681A434C
:10038000BB681A6014E03B689B789B00DBB203F00B
:100390000F03FB73FC7B3B681B881846FFF7E8FEE6
:1003A000034604FA03F2BB681B681A43BB681A6071
:1003B00000BF1437BD4690BD80B582B000AF0123A9
:1003C000BB800123BB713B1D19461148FFF733FF6A
:1003D0000223BB800323BB713B1D19460C48FFF76A
:1003E0002AFF0423BB800223BB713B1D194608482A
:1003F000FFF721FF0823BB800023BB713B1D19467B
:100400000348FFF718FF00BF0837BD4680BD00BF97
:100410000008014080B400AF074B9B69064A43F0D7
:1004200004039361044B9B69034A43F008039361FF
:1004300000BFBD4680BC70470010024080B500AFD1
:10044000FFF7E8FFFFF7B8FFFEE700000D4885461D
:10045000AFF300800C480D490D4A002302E0D45848
:10046000C4500433C4188C42F9D30A4A0A4C0023FE
:1004700001E013600432A242FBD300F011F8FFF751
:10048000DDFFFEE700280020000000200000002023
:1004900008050008000000201C000020FEE7000006
:1004A00070B500250C4E0D4CA41BA410A54209D11B
:1004B00000F01AF800250A4E0A4CA41BA410A5420D
:1004C00005D170BD56F8253098470135EEE756F84E
:1004D000253098470135F2E70005000800050008BF
:1004E0000005000804050008F8B500BFF8BC08BC0A
:1004F0009E467047F8B500BFF8BC08BC9E467047E2
:040500005501000899
:0405040031010008B9
:040000050800044D9E
:00000001FF
