:020000040800F2
:1000000000280020FD0D00084D0E00084D0E0008D0
:100010004D0E00084D0E00084D0E000800000000B7
:100020000000000000000000000000004D0E00086D
:100030004D0E0008000000004D0E00084D0E000897
:100040004D0E00084D0E00084D0E00084D0E000824
:100050004D0E00084D0E00084D0E00084D0E000814
:100060004D0E00084D0E00084D0E00084D0E000804
:100070004D0E00084D0E00084D0E00084D0E0008F4
:100080004D0E00084D0E00084D0E00084D0E0008E4
:100090004D0E00084D0E00084D0E00084D0E0008D4
:1000A0004D0E00084D0E00084D0E00084D0E0008C4
:1000B0004D0E00084D0E00084D0E00084D0E0008B4
:1000C0004D0E00084D0E00084D0E00084D0E0008A4
:1000D0004D0E00084D0E00084D0E00084D0E000894
:1000E0004D0E00084D0E0008000000004D0E0008E7
:1000F0004D0E00084D0E00084D0E00084D0E000874
:100100004D0E00084D0E00084D0E00084D0E000863
:100110004D0E00084D0E00084D0E00084D0E000853
:100120004D0E00084D0E00084D0E00084D0E000843
:1001300010B5054C237833B9044B13B10448AFF321
:1001400000800123237010BD20000020000000006B
:10015000980E000808B5034B1BB103490348AFF3E1
:10016000008008BD0000000024000020980E000858
:1001700080B485B000AF78600023FB600BE0002303
:10018000BB6002E0BB680133BB60BB68FE2BF9D9E2
:10019000FB680133FB60FA687B689A42EFD300BFCB
:1001A0001437BD4680BC704780B500AF374B012285
:1001B0001A80364B04229A70344B0122DA7033498C
:1001C000334800F078FC314B02221A802F4B042276
:1001D0009A702E4B0122DA702C492D4800F06BFCEE
:1001E0002A4B08221A80294B04229A70274B01229D
:1001F000DA702649264800F05EFC244B10221A8053
:10020000224B04229A70214B0122DA701F492048A8
:1002100000F051FC1D4B20221A801C4B04229A70C6
:100220001A4B0122DA701949194800F044FC174BA7
:1002300040221A80154B04229A70144B0122DA7066
:100240001249134800F037FC104B80221A800F4BE4
:1002500004229A700D4B0122DA700C490C4800F010
:100260002AFC0A4B4FF480721A80084B04229A70C1
:10027000064B0122DA700549054800F01CFCFF21FD
:10028000034800F00AFD00BF80BD00BF3C00002015
:10029000000C014080B582B000AF0023FB71002349
:1002A000BB7100237B710023FB71AEE000237B71E7
:1002B0000FE07B79594A52F823309BB2012219464C
:1002C000574800F0D3FC0520FFF752FF7B7901333C
:1002D0007B717B79032BECD9FB79504A52F82330A0
:1002E0009BB2002219464E4800F0C0FC0520FFF7E3
:1002F0003FFF0023BB7181E0BB794A4A52F82330AB
:100300009BB21946464800F09AFC0346002B72D176
:1003100000BFBB79434A52F823309BB2194640488C
:1003200000F08DFC0346002BF3D0FB79032B62D841
:1003300001A252F823F000BF49030008710300082E
:1003400099030008C1030008BB79002B01D13723B2
:1003500060E0BB79012B01D134235BE0BB79022B38
:1003600001D1312356E0BB79032B3DD1212351E04C
:10037000BB79002B01D138234CE0BB79012B01D193
:10038000352347E0BB79022B01D1322342E0BB7910
:10039000032B2BD130233DE0BB79002B01D1392336
:1003A00038E0BB79012B01D1362333E0BB79022B36
:1003B00001D133232EE0BB79032B19D13D2329E052
:1003C000BB79002B01D12F2324E0BB79012B01D174
:1003D0002A231FE0BB79022B01D12D231AE0BB7920
:1003E000032B07D12B2315E000BF04E000BF02E080
:1003F00000BF00E000BFBB790133BB71BB79032BA9
:100400007FF67AAFFB790133FB71FB79032B7FF623
:100410004DAF4E2318460837BD4680BD1000002062
:10042000000C01400000002080B485B000AF78606F
:100430000023FB600BE00023BB6002E0BB680133DC
:10044000BB60BB68FE2BF9D9FB680133FB60FA681F
:100450007B689A42EFD300BF1437BD4680BC70471B
:1004600080B500AF00224FF48061074800F0FEFB2A
:100470003220FFF7D9FF01224FF48061024800F0DB
:10048000F5FB00BF80BD00BF0008014080B500AF94
:10049000524B4FF480721A80504B04229A704F4B8B
:1004A0000122DA704D494E4800F005FB4B4B4FF4EA
:1004B00000721A80494B04229A70484B0122DA706C
:1004C0004649474800F0F7FA444B4FF480621A80DF
:1004D000424B04229A70414B0122DA703F49404856
:1004E00000F0E9FA3D4B01221A803C4B04229A703D
:1004F0003A4B0122DA703949394800F0DCFA374BBF
:1005000002221A80354B04229A70344B0122DA7091
:100510003249334800F0CFFA304B04221A802F4B77
:1005200004229A702D4B0122DA702C492C4800F0DD
:10053000C2FA2A4B08221A80284B04229A70274BB1
:100540000122DA702549264800F0B5FA234B102223
:100550001A80224B04229A70204B0122DA701F4924
:100560001F4800F0A8FA1D4B20221A801B4B0422C2
:100570009A701A4B0122DA701849194800F09BFA58
:10058000164B40221A80154B04229A70134B0122FD
:10059000DA701249124800F08EFA104B80221A804D
:1005A0000E4B04229A700D4B0122DA700B490C4855
:1005B00000F081FA00224FF48071094800F056FBE8
:1005C00000224FF40071064800F050FB00224FF467
:1005D0008061034800F04AFB00BF80BD400000205E
:1005E0000008014080B500AF1420FFF71DFFFFF7A2
:1005F0004DFF1420FFF718FF00F00EF8382000F030
:1006000013F8062000F010F8802000F00DF80F20FD
:1006100000F00AF800BF80BD80B500AF012000F0F7
:1006200003F800BF80BD000080B582B000AF034674
:10063000FB7100F00BF900224FF48071324800F09A
:1006400015FB00224FF400712F4800F00FFBFB79DF
:1006500003F00103DBB21A4601212B4800F006FB30
:10066000FB795B08DBB203F00103DBB21A4602211F
:10067000254800F0FBFAFB799B08DBB203F001038D
:10068000DBB21A460421204800F0F0FAFB79DB08BF
:10069000DBB203F00103DBB21A4608211A4800F06E
:1006A000E5FAFB791B09DBB203F00103DBB21A4662
:1006B0001021154800F0DAFAFB795B09DBB203F090
:1006C0000103DBB21A4620210F4800F0CFFAFB7974
:1006D0009B09DBB203F00103DBB21A4640210A4852
:1006E00000F0C4FAFB79DB09DBB21A468021064828
:1006F00000F0BCFA1E20FFF797FEFFF7B1FE00BF27
:100700000837BD4680BD00BF0008014080B582B0FB
:1007100000AF0346FB7100F099F801224FF480719D
:10072000334800F0A3FAFB7903F00103DBB21A4669
:1007300001212F4800F09AFAFB795B08DBB203F045
:100740000103DBB21A460221294800F08FFAFB7937
:100750009B08DBB203F00103DBB21A4604212448F4
:1007600000F084FAFB79DB08DBB203F00103DBB2B3
:100770001A4608211E4800F079FAFB791B09DBB202
:1007800003F00103DBB21A461021194800F06EFA9B
:10079000FB795B09DBB203F00103DBB21A462021CF
:1007A000134800F063FAFB799B09DBB203F0010305
:1007B000DBB21A4640210E4800F058FAFB79DB09FB
:1007C000DBB21A4680210A4800F050FA00224FF4AA
:1007D0000071074800F04AFAFFF742FE00224FF48A
:1007E0008071034800F042FA00BF0837BD4680BD63
:1007F0000008014080B584B000AF78600023FB6042
:100800001CE07B685A1C7A601B781846FFF77EFF55
:10081000FB680133FB60FB68102B04D10021022030
:1008200000F052F80AE0FB68202B07D1FFF7F4FE36
:100830000021012000F048F80023FB607B681B7852
:10084000002BDED100BF1037BD4680BD80B500AFA4
:100850001B4B80221A801A4B01229A7018491948A2
:1008600000F029F901224FF40071164800F0FEF95A
:1008700000224FF48071134800F0F8F900BF802186
:10088000104800F0DCF9034603F00103002BF6D119
:10089000FFF7E6FD0A4B80221A80094B04229A706A
:1008A000074B0122DA700649064800F004F90022DD
:1008B0004FF40071034800F0D9F900BF80BD00BFBC
:1008C000400000200008014080B582B000AF786091
:1008D00039607B68012B0DD13B680F2B1ADC3B681C
:1008E000002B17DB3B68DBB2803BDBB21846FFF71F
:1008F0009BFE0FE07B68022B0CD13B681F2B09DCB1
:100900003B68002B06DB3B68DBB2403BDBB21846A2
:10091000FFF78AFE00BF0837BD4680BD80B500AF37
:10092000314B4FF400721A802F4B04229A702E4BD9
:100930000122DA702C492D4800F0BDF82A4B4FF403
:1009400080621A80284B04229A70274B0122DA70A9
:100950002549264800F0AFF8234B4FF400621A8077
:10096000214B04229A70204B0122DA701E491F4845
:1009700000F0A1F81C4B4FF480521A801A4B04224D
:100980009A70194B0122DA701749184800F093F851
:10099000154B4FF400521A80134B04229A70124BDD
:1009A0000122DA701049114800F085F80E4B4FF41F
:1009B00080421A800C4B04229A700B4B0122DA7091
:1009C00009490A4800F077F8074B4FF400421A80B3
:1009D000054B04229A70044B0122DA700249034845
:1009E00000F069F800BF80BD44000020000C014009
:1009F00080B483B000AF0346FB80FB88802B42D0DD
:100A0000802B11DC082B36D0082B06DC022B2ED0D5
:100A1000042B2ED0012B28D047E0202B2FD0402BA9
:100A20002FD0102B29D040E0B3F5006F33D0B3F5B1
:100A3000006F09DCB3F5007F29D0B3F5806F28D0B3
:100A4000B3F5807F21D030E0B3F5005F27D0B3F558
:100A5000005F03DCB3F5805F1FD026E0B3F5804F65
:100A60001FD0B3F5004F1ED01FE000231EE004236B
:100A70001CE008231AE00C2318E0102316E01423CE
:100A800014E0182312E01C2310E000230EE00423DE
:100A90000CE008230AE00C2308E0102306E01423EE
:100AA00004E0182302E01C2300E0002318460C3762
:100AB000BD4680BC704790B585B000AF78603960A6
:100AC0000023BB600023FB733B681B88FF2B01D80E
:100AD0007B6801E07B680433BB603B681B88184679
:100AE000FFF786FF03461A460F239340DA43BB689D
:100AF0001B681A40BB681A603B689B78042B0BD0BC
:100B00003B689B78052B07D03B689B78072B03D06D
:100B10003B689B78062B1CD13B689B78043B9B0071
:100B20005AB23B68DB785BB213435BB2DBB203F0D3
:100B30000F03FB73FC7B3B681B881846FFF758FFCD
:100B4000034604FA03F2BB681B681A43BB681A60C9
:100B500071E03B689B78012B03D03B689B78002BAE
:100B600015D13B689B789B00DBB203F00F03FB734E
:100B7000FC7B3B681B881846FFF73AFF034604FAE4
:100B800003F2BB681B681A43BB681A6053E03B68FA
:100B90009B78022B03D03B689B78032B35D13B68B5
:100BA0009B78022B02D0032B0FD01FE07B68DB6801
:100BB0003A6812881A437B68DA603B689B789B002E
:100BC000DBB203F00F03FB7310E07B68DB683A686D
:100BD0001288D2431A407B68DA603B689B78013BFD
:100BE0009B00DBB203F00F03FB7300BFFC7B3B6891
:100BF0001B881846FFF7FCFE034604FA03F2BB68A5
:100C00001B681A43BB681A6015E03B689B78073B7A
:100C10009B00DBB203F00F03FB73FC7B3B681B887C
:100C20001846FFF7E5FE034604FA03F2BB681B68AB
:100C30001A43BB681A6000BF1437BD4690BD80B42C
:100C400085B000AF78600B467B807B689A687B88B4
:100C50001340002B02D00123FB7301E00023FB7340
:100C6000FB7B18461437BD4680BC704780B483B008
:100C700000AF78600B467B8013467B707B78002B3F
:100C800003D07A887B681A6102E07A887B685A61AF
:100C900000BF0C37BD4680BC704780B483B000AF46
:100CA00078600B467B807A887B68DA6000BF0C37FF
:100CB000BD4680BC704780B485B000AF786000232B
:100CC000FB600BE00023BB6002E0BB680133BB604C
:100CD000BB68FE2BF9D9FB680133FB607B68FA68BF
:100CE0009A42EFD300BF1437BD4680BC7047000066
:100CF00080B400AF074B9B69064A43F0040393613D
:100D0000044B9B69034A43F00803936100BFBD464F
:100D100080BC70470010024080B588B000AFFFF77C
:100D2000E7FFFFF75FFCFFF7F9FD2F48FFF762FDD4
:100D30004FF4FA70FFF778FBFFF76EFC2B4A07F1D0
:100D4000100307CA03C31A800233120C1A70284A10
:100D50003B1D07CA03C31A800233120C1A7000230A
:100D6000FB771CE0FB7F07F12002134413F8103CD3
:100D70009BB25B029BB219461E48FFF78EFFFB7FBA
:100D800007F12002134413F81C3C1846FFF7BEFC81
:100D90004FF47A70FFF78FFFFB7F0133FB77FB7F08
:100DA0000A2BDFD9FFF738FCFFF7FEF91248FFF7EF
:100DB00021FD4FF4FA70FFF737FBFFF72DFCFFF72B
:100DC00069FA0346BB77BB7F212B02D04E2B08D09C
:100DD00002E0FFF721FC05E0BB7F1846FFF796FC19
:100DE00000E000BFEBE700BFB00E0008CC0E00082B
:100DF000D80E0008000C0140BC0E00080D488546C6
:100E0000AFF300800C480D490D4A002302E0D4588E
:100E1000C4500433C4188C42F9D30A4A0A4C002344
:100E200001E013600432A242FBD300F011F8FFF797
:100E300073FFFEE7002800200000002020000020B3
:100E4000EC0E00082000002048000020FEE7000013
:100E500070B500250C4E0D4CA41BA410A54209D161
:100E600000F01AF800250A4E0A4CA41BA410A54253
:100E700005D170BD56F8253098470135EEE756F894
:100E8000253098470135F2E7E40E0008E40E00082B
:100E9000E40E0008E80E0008F8B500BFF8BC08BC76
:100EA0009E467047F8B500BFF8BC08BC9E46704728
:100EB0006869207468657265000000004B455942FE
:100EC000414420697320524541445900C0F9A4B0FF
:100ED000999282F88090C000303132333435363701
:040EE000383930006D
:040EE40055010008AC
:040EE80031010008CC
:100EEC0001000000020000000800000010000000DB
:100EFC002000000040000000800000000001000005
:0400000508000DFDE5
:00000001FF
