S01C0000756E6974375F73656374696F6E315F7461736B322E7372656348
S11300000C942A000C9434000C9434000C943400A6
S11300100C9434000C9434000C9434000C9434008C
S11300200C9434000C9434000C9434000C9434007C
S11300300C9434000C9434000C9434000C9434006C
S11300400C9434000C9434000C9434000C9434005C
S11300500C94340011241FBECFE5D8E0DEBFCDBF21
S11300600E9446000C9468000C94000081B38E7FBB
S113007081BB82B38E7F82BB81B3806281BB81B33B
S1130080806481BB81B3806881BB08950E9436007F
S113009080E090E002C080E090E0809BFECF00977B
S11300A029F432B320E2232722BB0BC0813091050F
S11300B029F432B320E4232722BB03C022B32058FF
S11300C022BB8099FECF01968330910524F7E5CFBA
S10700D0F894FFCFCE
S9030000FC
