:020000040800F2
:100000000028002041020008910200089102000827
:10001000910200089102000891020008000000000F
:100020000000000000000000000000009102000835
:1000300091020008000000009102000891020008EF
:100040009102000891020008910200089102000844
:100050009102000891020008910200089102000834
:100060009102000891020008910200089102000824
:100070009102000891020008910200089102000814
:100080009102000891020008910200089102000804
:1000900091020008910200089102000891020008F4
:1000A00091020008910200089102000891020008E4
:1000B00091020008910200089102000891020008D4
:1000C00091020008910200089102000891020008C4
:1000D00091020008910200089102000891020008B4
:1000E000910200089102000800000000910200083F
:1000F0009102000891020008910200089102000894
:100100009102000891020008910200089102000883
:100110009102000891020008910200089102000873
:100120009102000891020008910200089102000863
:1001300010B5054C237833B9044B13B10448AFF321
:1001400000800123237010BD00000020000000008B
:10015000DC02000808B5034B1BB103490348AFF3A9
:10016000008008BD0000000004000020DC02000840
:1001700080B400AF104B1B680F4A43F002031360BA
:100180000D4B1B680C4A43F4C01313600A4B1B68E9
:10019000094A43F480631360074B1B68064A43F423
:1001A00020531360054B1B68044A43F080731360AF
:1001B00000BFBD4680BC70470410024000100240E2
:1001C00080B582B000AFFFF7D3FF00237B60194BEF
:1001D0001B68184A43F004031360174B1B68164A48
:1001E00023F470031360144B1B68134A43F4001389
:1001F0001360124B1B68114A43F400531360002331
:100200007B6002E07B6801337B607B68B3F5FA6F4B
:10021000F8DB0A4B1B68094A23F4005313600023E0
:100220007B6002E07B6801337B607B68B3F5FA6F2B
:10023000F8DBDEE718100240040801400C0801401A
:100240000D488546AFF300800C480D490D4A002348
:1002500002E0D458C4500433C4188C42F9D30A4A7B
:100260000A4C002301E013600432A242FBD300F0E9
:1002700011F8FFF7A5FFFEE700280020000000208E
:1002800000000020FC020008000000201C000020EC
:10029000FEE7000070B500250C4E0D4CA41BA41009
:1002A000A54209D100F01AF800250A4E0A4CA41BF9
:1002B000A410A54205D170BD56F8253098470135E8
:1002C000EEE756F8253098470135F2E7F4020008CA
:1002D000F4020008F4020008F8020008F8B500BFB4
:1002E000F8BC08BC9E467047F8B500BFF8BC08BC17
:0402F0009E4670476F
:0402F40055010008A8
:0402F80031010008C8
:0400000508000241AC
:00000001FF
