S01E0000756E6974385F6C6573736F6E325F73656374696F6E312E7372656364
S11300000C942A000C9447000C9447000C9447006D
S11300100C9447000C9447000C9447000C94470040
S11300200C9447000C9447000C9447000C94470030
S11300300C9447000C9447000C9447000C94470020
S11300400C9447000C9447000C9447000C94470010
S11300500C94470011241FBECFE5D8E0DEBFCDBF0E
S113006010E0A0E6B0E0E0E4F3E002C005900D92F9
S1130070AE36B107D9F720E0AEE6B0E001C01D927C
S1130080A537B207E1F70E94CD000C949E010C94B1
S1130090000088B3877F88BB8FE295E70197F1F76B
S11300A000C0000088B3886088BB08958AB38F704D
S11300B08ABB88B3846088BB88B38D7F88BB0E9469
S11300C049008FEF8ABB88B38B7F88BB0895CF9399
S11300D0C82F0E9456008BB38F709C2F907F892B62
S11300E08BBB88B3897F88BB0E9449002BB330E166
S11300F0C39FC0011124922F9F70892B8BBB88B39F
S1130100897F88BB0E944900CF91089581E00E94B5
S113011067000895CF93C82F0E9456008BB38F7049
S11301208BBB8BB39C2F907F892B8BBB88B38B7F2E
S113013088BB0E9449008BB38F708BBB2BB330E11B
S1130140C39FC0011124822B8BBB0E944900CF9115
S113015008958FE19EE40197F1F700C000000E942A
S1130160560087B38E6087BB88B3817F88BB8FEFCF
S11301708ABB0E9486000E94560082E00E948A0088
S113018088E20E948A0086E00E94670080E80E945C
S113019067008FE00E9467000895CF93DF93CDB787
S11301A0DEB727970FB6F894DEBF0FBECDBF0E940F
S11301B0A90083E08D831B821C821E8289E190E06A
S11301C09A83898388E190E09A838983CE0101969A
S11301D00E94EF0080E690E00E949101FFCFCF9350
S11301E0DF93EC0187E0FE01AEE6B0E001900D92F2
S11301F08A95E1F78881998199B1892B89B980B56C
S1130200806880BD8C8181110AC08AB18B7F8AB9D4
S113021080B58D7F80BD80B58B7F80BD30C08C81E3
S1130220813051F48AB18B7F8AB980B5826080BDF8
S113023080B58B7F80BD23C08C81823051F48AB11C
S11302408B7F8AB980B58D7F80BD80B5846080BD89
S113025016C08C81833039F48AB18B7F8AB980B51A
S1130260866080BD0CC08C81873049F48AB184607B
S11302708AB980B5826080BD80B5846080BD8B8181
S1130280811107C080B58F7E80BD80B58F7D80BD14
S113029013C08B81823039F480B58F7E80BD80B5E8
S11302A0806280BD09C08B81833031F480B5806168
S11302B080BD80B5806280BD8D81811104C080B510
S11302C0877F80BD03C080B5886080BD8A8181112D
S11302D00AC080B58F7B80BD80B58E7F80BD8BB119
S11302E08D7F8BB906C080B5806480BD8BB1826080
S11302F08BB98E81803121F48AB180618AB90AC0B8
S11303008E81883021F48AB188608AB903C08AB1A9
S113031088618AB9DF91CF9108955D9BFECF8CB936
S11303200895CF93DF93EC0103C00E948D012196C1
S113033088818111FACFDF91CF910895F894FFCF8E
S111034048492C49616D2068617373616E0039
S9030000FC
