S02500004C43445F696E746572666163696E675F776974685F41544D45474133322E73726563B5
S11300000C942A000C943F000C943F000C943F0085
S11300100C943F000C943F000C943F000C943F0060
S11300200C943F000C943F000C943F000C943F0050
S11300300C943F000C943F000C943F000C943F0040
S11300400C943F000C943F000C943F000C943F0030
S11300500C943F0011241FBECFE5D8E0DEBFCDBF16
S113006010E0A0E6B0E0EEEBF2E002C005900D92E5
S1130070A037B107D9F70E944C010C945D010C9490
S1130080000081B3807F81BB81B3806F81BB82B369
S11300908FEF82BB089560E070E07BC082B3806F15
S11300A082BB22B3FB01EE0FFF1FE05AFF4F81E03A
S11300B090E0008002C0880F991F0A94E2F78095AF
S11300C0822382BB40E050E05EC080B3FA01EE0FB1
S11300D0FF1FE859FF4F208190E0022E02C0959542
S11300E087950A94E2F780FD4CC080B390E0022E1D
S11300F002C0959587950A94E2F780FFF6CF6130A8
S11301007105C9F024F46115710541F03AC06230FB
S11301107105F1F06330710541F133C041155105AA
S1130120F1F141305105E9F142305105E1F143303B
S1130130510539F53AC041155105C9F14130510510
S1130140C1F142305105B9F143305105D1F435C004
S113015041155105A1F14130510599F14230510544
S113016091F14330510569F430C04115510579F1DD
S11301704130510571F14230510569F14330510567
S113018061F14F5F5F4F443051050CF49ECF6F5FB8
S11301907F4F643071050CF481CF8EE4089587E3BA
S11301A0089584E3089581E3089581E2089588E33E
S11301B0089585E3089582E3089580E3089589E32B
S11301C0089586E3089583E308958DE308958FE207
S11301D008958AE208958DE208958BE2089588B324
S11301E0877F88BB8FE59AEE0197F1F700C0000086
S11301F088B3886088BB08951ABA88B3846088BBC2
S113020088B38D7F88BB0E94EF008FEF8ABB88B3D1
S11302108B7F88BB0895CF93C82F0E94FC00CBBB73
S113022088B3897F88BB0E94EF00CF91089581E055
S11302300E940B0108958FE39CE90197F1F700C038
S113024000000E94FC0087B38E6087BB88B3817F67
S113025088BB8FEF8ABB0E94170188E30E940B01C1
S113026086E00E940B0180E80E940B018FE00E944F
S11302700B010895CF93C82F0E94FC0088B38260BD
S113028088BBCBBB88B3826088BB88B38B7F88BBB9
S11302900E94EF00CF9108950E941B010E9441002B
S11302A00E944B00813219F08E34D1F303C00E94B6
S11102B01701F6CF0E943A01F3CFF894FFCF66
S11302BE0400050006000700000001000200030010
S9030000FC
