S01C0000756E6974375F73656374696F6E315F7461736B312E7372656349
S11300000C942A000C9434000C9434000C943400A6
S11300100C9434000C9434000C9434000C9434008C
S11300200C9434000C9434000C9434000C9434007C
S11300300C9434000C9434000C9434000C9434006C
S11300400C9434000C9434000C9434000C9434005C
S11300500C94340011241FBECFE5D8E0DEBFCDBF21
S11300600E9446000C946A000C94000081B38E7FB9
S113007081BB82B38E7F82BB81B3806281BB81B33B
S1130080806481BB81B3806881BB08950E9436007F
S1130090809BFECF17C042B381E090E0022E02C0E5
S11300A0880F991F0A94E2F7842782BB4FEF83EDF0
S11300B090E3415080409040E1F700C000002F5F82
S11300C03F4F02C025E030E02830310520F380990D
S10B00D0FECFDECFF894FFCF50
S9030000FC
