:100000000C942A000C9434000C9434000C943400AA
:100010000C9434000C9434000C9434000C94340090
:100020000C9434000C9434000C9434000C94340080
:100030000C9434000C9434000C9434000C94340070
:100040000C9434000C9434000C9434000C94340060
:100050000C94340011241FBECFE5D8E0DEBFCDBF25
:100060000E9486000C94D4000C940000FC01DB017B
:1000700012968C911297811107C0908111968C91E4
:100080001197892B808308C081818183908111968B
:100090008C911197892B8083411111C080818061DF
:1000A000808387B3806187BB87B3806287BB87B358
:1000B000806887BB90818C91892B80830895413023
:1000C00051F480818F7E808387B3806487BB908169
:1000D0008C91892B80830895FC01628391819923FF
:1000E000ECF782810895CF93C42F88B38F7E88BBAD
:1000F0008DE290E00E946C006C2F8DE290E00E94F7
:100100006C0088B3806188BBCF910895CF93DF9353
:1001100000D01F92CDB7DEB71B8280E4898381E0D7
:100120008A8340E0BE016F5F7F4F8DE290E00E94C6
:1001300036004FEF69E08DE290E00E94730047E0E7
:100140006BE08DE290E00E9473004FE06AE08DE288
:1001500090E00E94730041E06CE08DE290E00E942C
:10016000730040E0C12CD12C7601C39416C011E07D
:10017000140F6C2D8DE290E00E9473002FE38DE050
:1001800093E0215080409040E1F700C000002FEF45
:10019000C21AD20AE20AF20A412F89E0C816D10433
:0C01A000E104F10420F3DECFF894FFCF5F
:00000001FF
