:100000000C942A000C9434000C9434000C943400AA
:100010000C9434000C9434000C9434000C94340090
:100020000C9434000C9434000C9434000C94340080
:100030000C9434000C9434000C9434000C94340070
:100040000C9434000C9434000C9434000C94340060
:100050000C94340011241FBECFE5D8E0DEBFCDBF25
:100060000E9440000C944B000C94000081B38E7FE2
:1000700081BB82B38E7F82BB81B3806181BB0895D7
:100080000E943600809BFECF92B380E1892782BB1D
:0A0090008099FECFF7CFF894FFCF60
:00000001FF
